{
  "contractName": "Micro_Module_Tracker",
  "abi": [
    {
      "inputs": [
        {
          "internalType": "string",
          "name": "key",
          "type": "string"
        },
        {
          "internalType": "uint256",
          "name": "index",
          "type": "uint256"
        }
      ],
      "name": "addTracker",
      "outputs": [],
      "stateMutability": "nonpayable",
      "type": "function"
    },
    {
      "inputs": [],
      "name": "getLength",
      "outputs": [
        {
          "internalType": "uint256",
          "name": "",
          "type": "uint256"
        }
      ],
      "stateMutability": "view",
      "type": "function"
    },
    {
      "inputs": [
        {
          "internalType": "string",
          "name": "key",
          "type": "string"
        }
      ],
      "name": "checkExists",
      "outputs": [
        {
          "internalType": "bool",
          "name": "",
          "type": "bool"
        }
      ],
      "stateMutability": "view",
      "type": "function"
    },
    {
      "inputs": [
        {
          "internalType": "string",
          "name": "key",
          "type": "string"
        }
      ],
      "name": "returnIndex",
      "outputs": [
        {
          "internalType": "uint256",
          "name": "",
          "type": "uint256"
        }
      ],
      "stateMutability": "view",
      "type": "function"
    }
  ],
  "bytecode": "0x608060405234801561001057600080fd5b506107f7806100206000396000f3fe608060405234801561001057600080fd5b506004361061004c5760003560e01c8063110cd56e146100515780634d378a4814610081578063be1c766b1461009d578063db4b54b1146100bb575b600080fd5b61006b60048036038101906100669190610415565b6100eb565b6040516100789190610510565b60405180910390f35b61009b60048036038101906100969190610456565b610108565b005b6100a5610123565b6040516100b2919061052b565b60405180910390f35b6100d560048036038101906100d09190610415565b61012f565b6040516100e2919061052b565b60405180910390f35b600061010182600061014c90919063ffffffff16565b9050919050565b61011e8282600061017c9092919063ffffffff16565b505050565b60008060020154905090565b60006101458260006102c790919063ffffffff16565b9050919050565b600080836000018360405161016191906104f9565b90815260200160405180910390206000015411905092915050565b600080846000018460405161019191906104f9565b90815260200160405180910390206000015490508285600001856040516101b891906104f9565b90815260200160405180910390206001018190555060008111156101e05760019150506102c0565b84600101805490509050846001016001816001815401808255809150500390600052602060002090505060018161021791906105b2565b856000018560405161022991906104f9565b9081526020016040518091039020600001819055508385600101828154811061027b577f4e487b7100000000000000000000000000000000000000000000000000000000600052603260045260246000fd5b9060005260206000209060020201600001908051906020019061029f9291906102f5565b508460020160008154809291906102b5906106c3565b919050555060009150505b9392505050565b600082600001826040516102db91906104f9565b908152602001604051809103902060010154905092915050565b82805461030190610660565b90600052602060002090601f016020900481019282610323576000855561036a565b82601f1061033c57805160ff191683800117855561036a565b8280016001018555821561036a579182015b8281111561036957825182559160200191906001019061034e565b5b509050610377919061037b565b5090565b5b8082111561039457600081600090555060010161037c565b5090565b60006103ab6103a68461056b565b610546565b9050828152602081018484840111156103c357600080fd5b6103ce84828561061e565b509392505050565b600082601f8301126103e757600080fd5b81356103f7848260208601610398565b91505092915050565b60008135905061040f816107aa565b92915050565b60006020828403121561042757600080fd5b600082013567ffffffffffffffff81111561044157600080fd5b61044d848285016103d6565b91505092915050565b6000806040838503121561046957600080fd5b600083013567ffffffffffffffff81111561048357600080fd5b61048f858286016103d6565b92505060206104a085828601610400565b9150509250929050565b6104b381610608565b82525050565b60006104c48261059c565b6104ce81856105a7565b93506104de81856020860161062d565b80840191505092915050565b6104f381610614565b82525050565b600061050582846104b9565b915081905092915050565b600060208201905061052560008301846104aa565b92915050565b600060208201905061054060008301846104ea565b92915050565b6000610550610561565b905061055c8282610692565b919050565b6000604051905090565b600067ffffffffffffffff8211156105865761058561076a565b5b61058f82610799565b9050602081019050919050565b600081519050919050565b600081905092915050565b60006105bd82610614565b91506105c883610614565b9250827fffffffffffffffffffffffffffffffffffffffffffffffffffffffffffffffff038211156105fd576105fc61070c565b5b828201905092915050565b60008115159050919050565b6000819050919050565b82818337600083830152505050565b60005b8381101561064b578082015181840152602081019050610630565b8381111561065a576000848401525b50505050565b6000600282049050600182168061067857607f821691505b6020821081141561068c5761068b61073b565b5b50919050565b61069b82610799565b810181811067ffffffffffffffff821117156106ba576106b961076a565b5b80604052505050565b60006106ce82610614565b91507fffffffffffffffffffffffffffffffffffffffffffffffffffffffffffffffff8214156107015761070061070c565b5b600182019050919050565b7f4e487b7100000000000000000000000000000000000000000000000000000000600052601160045260246000fd5b7f4e487b7100000000000000000000000000000000000000000000000000000000600052602260045260246000fd5b7f4e487b7100000000000000000000000000000000000000000000000000000000600052604160045260246000fd5b6000601f19601f8301169050919050565b6107b381610614565b81146107be57600080fd5b5056fea2646970667358221220dbdcf5a72f9e3e7ba185fe769cfbd24b0bf22f97923df8d7609a24977b8b8b9864736f6c63430008030033",
  "immutableReferences": {},
  "source": "// SPDX-License-Identifier: MIT\npragma solidity >=0.6.8 <=0.8.3;\n\nimport \"./IterableMapping.sol\";\n\ncontract Micro_Module_Tracker\n{\n    itmap private _trackers;\n\n    using IterableMapping for itmap;\n\n    function addTracker(string memory key, uint index) public\n    {\n        _trackers.insert(key, index);\n    }\n\n    function getLength () public view returns (uint)\n    {\n        return _trackers.size;\n    }\n\n    function checkExists(string memory key) public view returns (bool)\n    {\n        return _trackers.contains(key);\n    }\n\n    function returnIndex (string memory key) public view returns (uint)\n    {\n        return _trackers.get(key);\n    }\n}",
  "sourcePath": "/Users/shreyparekh/Documents/RMIT/YEAR 3/SEM 2/Capstone/Application/Blockchain-Micro-Credentials/backend/blockchain/contracts/Micro_Module_Tracker.sol",
  "compiler": {
    "name": "solc",
    "version": "0.8.3+commit.8d00100c.Emscripten.clang"
  },
  "schemaVersion": "3.3.4",
  "updatedAt": "2021-04-11T08:05:54.364Z",
  "devdoc": {
    "kind": "dev",
    "methods": {},
    "version": 1
  },
  "userdoc": {
    "kind": "user",
    "methods": {},
    "version": 1
  }
}