{
  "contractName": "QA",
  "abi": [
    {
      "inputs": [
        {
          "internalType": "string",
          "name": "_qa_hash",
          "type": "string"
        }
      ],
      "name": "addHash",
      "outputs": [],
      "stateMutability": "nonpayable",
      "type": "function"
    },
    {
      "inputs": [],
      "name": "getLastIndex",
      "outputs": [
        {
          "internalType": "uint256",
          "name": "",
          "type": "uint256"
        }
      ],
      "stateMutability": "view",
      "type": "function"
    },
    {
      "inputs": [],
      "name": "getLength",
      "outputs": [
        {
          "internalType": "uint256",
          "name": "",
          "type": "uint256"
        }
      ],
      "stateMutability": "view",
      "type": "function"
    },
    {
      "inputs": [
        {
          "internalType": "uint256",
          "name": "index",
          "type": "uint256"
        }
      ],
      "name": "returnHash",
      "outputs": [
        {
          "internalType": "string",
          "name": "",
          "type": "string"
        }
      ],
      "stateMutability": "view",
      "type": "function"
    }
  ],
  "bytecode": "0x608060405234801561001057600080fd5b50610722806100206000396000f3fe608060405234801561001057600080fd5b506004361061004c5760003560e01c80633e1a9300146100515780637c3c2ee81461006f578063aeb276021461009f578063be1c766b146100bb575b600080fd5b6100596100d9565b604051610066919061049e565b60405180910390f35b610089600480360381019061008491906103c8565b6100f2565b604051610096919061045c565b60405180910390f35b6100b960048036038101906100b49190610387565b61021c565b005b6100c361025b565b6040516100d0919061049e565b60405180910390f35b600060016000805490506100ed919061052b565b905090565b606060008210158015610109575060008054905082105b610148576040517f08c379a000000000000000000000000000000000000000000000000000000000815260040161013f9061047e565b60405180910390fd5b60008281548110610182577f4e487b7100000000000000000000000000000000000000000000000000000000600052603260045260246000fd5b906000526020600020018054610197906105ab565b80601f01602080910402602001604051908101604052809291908181526020018280546101c3906105ab565b80156102105780601f106101e557610100808354040283529160200191610210565b820191906000526020600020905b8154815290600101906020018083116101f357829003601f168201915b50505050509050919050565b600081908060018154018082558091505060019003906000526020600020016000909190919091509080519060200190610257929190610267565b5050565b60008080549050905090565b828054610273906105ab565b90600052602060002090601f01602090048101928261029557600085556102dc565b82601f106102ae57805160ff19168380011785556102dc565b828001600101855582156102dc579182015b828111156102db5782518255916020019190600101906102c0565b5b5090506102e991906102ed565b5090565b5b808211156103065760008160009055506001016102ee565b5090565b600061031d610318846104de565b6104b9565b90508281526020810184848401111561033557600080fd5b610340848285610569565b509392505050565b600082601f83011261035957600080fd5b813561036984826020860161030a565b91505092915050565b600081359050610381816106d5565b92915050565b60006020828403121561039957600080fd5b600082013567ffffffffffffffff8111156103b357600080fd5b6103bf84828501610348565b91505092915050565b6000602082840312156103da57600080fd5b60006103e884828501610372565b91505092915050565b60006103fc8261050f565b610406818561051a565b9350610416818560208601610578565b61041f8161069b565b840191505092915050565b6000610437601c8361051a565b9150610442826106ac565b602082019050919050565b6104568161055f565b82525050565b6000602082019050818103600083015261047681846103f1565b905092915050565b600060208201905081810360008301526104978161042a565b9050919050565b60006020820190506104b3600083018461044d565b92915050565b60006104c36104d4565b90506104cf82826105dd565b919050565b6000604051905090565b600067ffffffffffffffff8211156104f9576104f861066c565b5b6105028261069b565b9050602081019050919050565b600081519050919050565b600082825260208201905092915050565b60006105368261055f565b91506105418361055f565b9250828210156105545761055361060e565b5b828203905092915050565b6000819050919050565b82818337600083830152505050565b60005b8381101561059657808201518184015260208101905061057b565b838111156105a5576000848401525b50505050565b600060028204905060018216806105c357607f821691505b602082108114156105d7576105d661063d565b5b50919050565b6105e68261069b565b810181811067ffffffffffffffff821117156106055761060461066c565b5b80604052505050565b7f4e487b7100000000000000000000000000000000000000000000000000000000600052601160045260246000fd5b7f4e487b7100000000000000000000000000000000000000000000000000000000600052602260045260246000fd5b7f4e487b7100000000000000000000000000000000000000000000000000000000600052604160045260246000fd5b6000601f19601f8301169050919050565b7f496e646578206973206f7574206f6620417272617920426f756e647300000000600082015250565b6106de8161055f565b81146106e957600080fd5b5056fea26469706673582212203a107b68c4457f24d0574b9e74cb2560306d6d8ff4ac758be9e8eb50d102ee0764736f6c63430008030033",
  "immutableReferences": {},
  "source": "// SPDX-License-Identifier: MIT\npragma solidity >=0.6.8 <=0.8.3;\n\ncontract QA\n{\n    string[] private _qa_array; \n\n    function addHash (string memory _qa_hash) public\n    {\n        _qa_array.push(_qa_hash);\n    }\n\n    function getLastIndex() public view returns (uint)\n    {\n        return (_qa_array.length - 1);\n    }\n\n    function getLength () public view returns (uint)\n    {\n        return _qa_array.length;\n    }\n\n    function returnHash (uint index) public view returns (string memory)\n    {\n        require(index >= 0 && index < _qa_array.length, \"Index is out of Array Bounds\");\n\n        return _qa_array[index];\n    }\n}",
  "sourcePath": "/Users/shreyparekh/Documents/RMIT/YEAR 3/SEM 2/Capstone/Application/Blockchain-Micro-Credentials/backend/blockchain/contracts/QA.sol",
  "compiler": {
    "name": "solc",
    "version": "0.8.3+commit.8d00100c.Emscripten.clang"
  },
  "schemaVersion": "3.3.4",
  "updatedAt": "2021-04-11T08:05:54.367Z",
  "devdoc": {
    "kind": "dev",
    "methods": {},
    "version": 1
  },
  "userdoc": {
    "kind": "user",
    "methods": {},
    "version": 1
  }
}